{
  "contractName": "TasksContract",
  "abi": [
    {
      "inputs": [],
      "stateMutability": "nonpayable",
      "type": "constructor"
    },
    {
      "anonymous": false,
      "inputs": [
        {
          "indexed": false,
          "internalType": "uint256",
          "name": "id",
          "type": "uint256"
        },
        {
          "indexed": false,
          "internalType": "string",
          "name": "title",
          "type": "string"
        },
        {
          "indexed": false,
          "internalType": "string",
          "name": "description",
          "type": "string"
        },
        {
          "indexed": false,
          "internalType": "bool",
          "name": "done",
          "type": "bool"
        },
        {
          "indexed": false,
          "internalType": "uint256",
          "name": "createdAt",
          "type": "uint256"
        }
      ],
      "name": "TaskCreated",
      "type": "event"
    },
    {
      "anonymous": false,
      "inputs": [
        {
          "indexed": false,
          "internalType": "uint256",
          "name": "id",
          "type": "uint256"
        },
        {
          "indexed": false,
          "internalType": "bool",
          "name": "done",
          "type": "bool"
        }
      ],
      "name": "TaskToggleDone",
      "type": "event"
    },
    {
      "inputs": [],
      "name": "taskCounter",
      "outputs": [
        {
          "internalType": "uint256",
          "name": "",
          "type": "uint256"
        }
      ],
      "stateMutability": "view",
      "type": "function",
      "constant": true
    },
    {
      "inputs": [
        {
          "internalType": "uint256",
          "name": "",
          "type": "uint256"
        }
      ],
      "name": "tasks",
      "outputs": [
        {
          "internalType": "uint256",
          "name": "id",
          "type": "uint256"
        },
        {
          "internalType": "string",
          "name": "title",
          "type": "string"
        },
        {
          "internalType": "string",
          "name": "description",
          "type": "string"
        },
        {
          "internalType": "bool",
          "name": "done",
          "type": "bool"
        },
        {
          "internalType": "uint256",
          "name": "createdAt",
          "type": "uint256"
        }
      ],
      "stateMutability": "view",
      "type": "function",
      "constant": true
    },
    {
      "inputs": [
        {
          "internalType": "string",
          "name": "_title",
          "type": "string"
        },
        {
          "internalType": "string",
          "name": "_description",
          "type": "string"
        }
      ],
      "name": "createTask",
      "outputs": [],
      "stateMutability": "nonpayable",
      "type": "function"
    },
    {
      "inputs": [
        {
          "internalType": "uint256",
          "name": "_id",
          "type": "uint256"
        }
      ],
      "name": "toggleDone",
      "outputs": [],
      "stateMutability": "nonpayable",
      "type": "function"
    }
  ],
  "bytecode": "0x6080604052600080553480156200001557600080fd5b50620000766040518060400160405280601081526020017f546172656120646520456a656d706c6f000000000000000000000000000000008152506040518060600160405280602b815260200162000ef9602b91396200007c60201b60201c565b6200046b565b6000808154809291906200009090620003ae565b91905055506040518060a001604052806000548152602001838152602001828152602001600015158152602001428152506001600080548152602001908152602001600020600082015181600001556020820151816001019080519060200190620000fd92919062000192565b5060408201518160020190805190602001906200011c92919062000192565b5060608201518160030160006101000a81548160ff021916908315150217905550608082015181600401559050507f6549102bed7d1bb5ec529ee14e2ca60ffc1f47f66d4cc6ca713220613cc64c25600054838360004260405162000186959493929190620002a5565b60405180910390a15050565b828054620001a09062000378565b90600052602060002090601f016020900481019282620001c4576000855562000210565b82601f10620001df57805160ff191683800117855562000210565b8280016001018555821562000210579182015b828111156200020f578251825591602001919060010190620001f2565b5b5090506200021f919062000223565b5090565b5b808211156200023e57600081600090555060010162000224565b5090565b6200024d816200032c565b82525050565b6000620002608262000310565b6200026c81856200031b565b93506200027e81856020860162000342565b62000289816200045a565b840191505092915050565b6200029f8162000338565b82525050565b600060a082019050620002bc600083018862000294565b8181036020830152620002d0818762000253565b90508181036040830152620002e6818662000253565b9050620002f7606083018562000242565b62000306608083018462000294565b9695505050505050565b600081519050919050565b600082825260208201905092915050565b60008115159050919050565b6000819050919050565b60005b838110156200036257808201518184015260208101905062000345565b8381111562000372576000848401525b50505050565b600060028204905060018216806200039157607f821691505b60208210811415620003a857620003a76200042b565b5b50919050565b6000620003bb8262000338565b91507fffffffffffffffffffffffffffffffffffffffffffffffffffffffffffffffff821415620003f157620003f0620003fc565b5b600182019050919050565b7f4e487b7100000000000000000000000000000000000000000000000000000000600052601160045260246000fd5b7f4e487b7100000000000000000000000000000000000000000000000000000000600052602260045260246000fd5b6000601f19601f8301169050919050565b610a7e806200047b6000396000f3fe608060405234801561001057600080fd5b506004361061004c5760003560e01c8063292a458514610051578063586717301461006d5780638d9776721461008b578063d81ef739146100bf575b600080fd5b61006b600480360381019061006691906106b2565b6100db565b005b6100756101e9565b604051610082919061079e565b60405180910390f35b6100a560048036038101906100a0919061071e565b6101ef565b6040516100b69594939291906107e2565b60405180910390f35b6100d960048036038101906100d4919061071e565b610342565b005b6000808154809291906100ed9061094a565b91905055506040518060a001604052806000548152602001838152602001828152602001600015158152602001428152506001600080548152602001908152602001600020600082015181600001556020820151816001019080519060200190610158929190610592565b506040820151816002019080519060200190610175929190610592565b5060608201518160030160006101000a81548160ff021916908315150217905550608082015181600401559050507f6549102bed7d1bb5ec529ee14e2ca60ffc1f47f66d4cc6ca713220613cc64c2560005483836000426040516101dd9594939291906107e2565b60405180910390a15050565b60005481565b600160205280600052604060002060009150905080600001549080600101805461021890610918565b80601f016020809104026020016040519081016040528092919081815260200182805461024490610918565b80156102915780601f1061026657610100808354040283529160200191610291565b820191906000526020600020905b81548152906001019060200180831161027457829003601f168201915b5050505050908060020180546102a690610918565b80601f01602080910402602001604051908101604052809291908181526020018280546102d290610918565b801561031f5780601f106102f45761010080835404028352916020019161031f565b820191906000526020600020905b81548152906001019060200180831161030257829003601f168201915b5050505050908060030160009054906101000a900460ff16908060040154905085565b6000600160008381526020019081526020016000206040518060a00160405290816000820154815260200160018201805461037c90610918565b80601f01602080910402602001604051908101604052809291908181526020018280546103a890610918565b80156103f55780601f106103ca576101008083540402835291602001916103f5565b820191906000526020600020905b8154815290600101906020018083116103d857829003601f168201915b5050505050815260200160028201805461040e90610918565b80601f016020809104026020016040519081016040528092919081815260200182805461043a90610918565b80156104875780601f1061045c57610100808354040283529160200191610487565b820191906000526020600020905b81548152906001019060200180831161046a57829003601f168201915b505050505081526020016003820160009054906101000a900460ff1615151515815260200160048201548152505090508060600151158160600190151590811515815250508060016000848152602001908152602001600020600082015181600001556020820151816001019080519060200190610506929190610592565b506040820151816002019080519060200190610523929190610592565b5060608201518160030160006101000a81548160ff021916908315150217905550608082015181600401559050507f389dee00d487dd41dd5bf0f43eeaa5b663b3af022d52368df89d388150295f458282606001516040516105869291906107b9565b60405180910390a15050565b82805461059e90610918565b90600052602060002090601f0160209004810192826105c05760008555610607565b82601f106105d957805160ff1916838001178555610607565b82800160010185558215610607579182015b828111156106065782518255916020019190600101906105eb565b5b5090506106149190610618565b5090565b5b80821115610631576000816000905550600101610619565b5090565b600061064861064384610874565b610843565b90508281526020810184848401111561066057600080fd5b61066b8482856108d6565b509392505050565b600082601f83011261068457600080fd5b8135610694848260208601610635565b91505092915050565b6000813590506106ac81610a31565b92915050565b600080604083850312156106c557600080fd5b600083013567ffffffffffffffff8111156106df57600080fd5b6106eb85828601610673565b925050602083013567ffffffffffffffff81111561070857600080fd5b61071485828601610673565b9150509250929050565b60006020828403121561073057600080fd5b600061073e8482850161069d565b91505092915050565b610750816108c0565b82525050565b6000610761826108a4565b61076b81856108af565b935061077b8185602086016108e5565b61078481610a20565b840191505092915050565b610798816108cc565b82525050565b60006020820190506107b3600083018461078f565b92915050565b60006040820190506107ce600083018561078f565b6107db6020830184610747565b9392505050565b600060a0820190506107f7600083018861078f565b81810360208301526108098187610756565b9050818103604083015261081d8186610756565b905061082c6060830185610747565b610839608083018461078f565b9695505050505050565b6000604051905081810181811067ffffffffffffffff8211171561086a576108696109f1565b5b8060405250919050565b600067ffffffffffffffff82111561088f5761088e6109f1565b5b601f19601f8301169050602081019050919050565b600081519050919050565b600082825260208201905092915050565b60008115159050919050565b6000819050919050565b82818337600083830152505050565b60005b838110156109035780820151818401526020810190506108e8565b83811115610912576000848401525b50505050565b6000600282049050600182168061093057607f821691505b60208210811415610944576109436109c2565b5b50919050565b6000610955826108cc565b91507fffffffffffffffffffffffffffffffffffffffffffffffffffffffffffffffff82141561098857610987610993565b5b600182019050919050565b7f4e487b7100000000000000000000000000000000000000000000000000000000600052601160045260246000fd5b7f4e487b7100000000000000000000000000000000000000000000000000000000600052602260045260246000fd5b7f4e487b7100000000000000000000000000000000000000000000000000000000600052604160045260246000fd5b6000601f19601f8301169050919050565b610a3a816108cc565b8114610a4557600080fd5b5056fea264697066735822122058faadc35b921046527b03d7058db231627af400f4a1dfd4f24de74fd95bdf4364736f6c6343000800003345737461207072696d65726120746172656120657320756e6120746172656120646520656a656d706c6f2e",
  "immutableReferences": {},
  "source": "// SPDX-License-Identifier: MIT\r\n\r\npragma solidity ^0.8.0;\r\n\r\ncontract TasksContract {\r\n    // Variables\r\n    uint public taskCounter = 0;\r\n\r\n    struct Task {\r\n        uint id;\r\n        string title;\r\n        string description;\r\n        bool done;\r\n        uint createdAt;\r\n    }\r\n\r\n    mapping(uint => Task) public tasks;\r\n\r\n    // Eventos\r\n    event TaskCreated(uint id, string title, string description, bool done, uint createdAt);\r\n    event TaskToggleDone(uint id, bool done);\r\n\r\n    // Constructor\r\n    constructor() {\r\n        createTask(\"Tarea de Ejemplo\", \"Esta primera tarea es una tarea de ejemplo.\");\r\n    }\r\n\r\n    // Funciones\r\n    /**\r\n     * @notice Funcin que nos permite crear tareas.\r\n     * @param _title Ttulo de la tarea.\r\n     * @param _description Descripcin de la tarea.\r\n     */\r\n    function createTask(string memory _title, string memory _description) public {\r\n        taskCounter++;\r\n        tasks[taskCounter] = Task(taskCounter, _title, _description, false, block.timestamp);\r\n        \r\n        emit TaskCreated(taskCounter, _title, _description, false, block.timestamp);\r\n    }\r\n\r\n    /**\r\n     * @notice Funcin que nos permite marcar si una tarea ha sido completada.\r\n     * @param _id Identificador de la tarea.\r\n     */\r\n    function toggleDone(uint _id) public {\r\n        Task memory _task = tasks[_id];\r\n        _task.done = !_task.done;\r\n        tasks[_id] = _task;\r\n\r\n        emit TaskToggleDone(_id, _task.done);\r\n    }\r\n}",
  "sourcePath": "C:\\Users\\Blanko\\Documents\\Santi\\Programming\\Blockchain\\Formacin\\crud-blockchain\\contracts\\TasksContract.sol",
  "compiler": {
    "name": "solc",
    "version": "0.8.0+commit.c7dfd78e.Emscripten.clang"
  },
  "schemaVersion": "3.4.2",
  "updatedAt": "2021-08-18T10:09:42.848Z",
  "networkType": "ethereum",
  "devdoc": {
    "kind": "dev",
    "methods": {
      "createTask(string,string)": {
        "params": {
          "_description": "Descripcin de la tarea.",
          "_title": "Ttulo de la tarea."
        }
      },
      "toggleDone(uint256)": {
        "params": {
          "_id": "Identificador de la tarea."
        }
      }
    },
    "version": 1
  },
  "userdoc": {
    "kind": "user",
    "methods": {
      "createTask(string,string)": {
        "notice": "Funcin que nos permite crear tareas."
      },
      "toggleDone(uint256)": {
        "notice": "Funcin que nos permite marcar si una tarea ha sido completada."
      }
    },
    "version": 1
  }
}